{
  "abi": [
    {
      "type": "function",
      "name": "UPGRADE_INTERFACE_VERSION",
      "inputs": [],
      "outputs": [
        {
          "name": "",
          "type": "string",
          "internalType": "string"
        }
      ],
      "stateMutability": "view"
    },
    {
      "type": "function",
      "name": "approveTransferWithSignatures",
      "inputs": [
        {
          "name": "signatures",
          "type": "bytes[]",
          "internalType": "bytes[]"
        },
        {
          "name": "message",
          "type": "tuple",
          "internalType": "struct BridgeUtils.Message",
          "components": [
            {
              "name": "messageType",
              "type": "uint8",
              "internalType": "uint8"
            },
            {
              "name": "version",
              "type": "uint8",
              "internalType": "uint8"
            },
            {
              "name": "nonce",
              "type": "uint64",
              "internalType": "uint64"
            },
            {
              "name": "chainID",
              "type": "uint8",
              "internalType": "uint8"
            },
            {
              "name": "payload",
              "type": "bytes",
              "internalType": "bytes"
            }
          ]
        }
      ],
      "outputs": [],
      "stateMutability": "nonpayable"
    },
    {
      "type": "function",
      "name": "approvedTransfers",
      "inputs": [
        {
          "name": "chainID",
          "type": "uint8",
          "internalType": "uint8"
        },
        {
          "name": "nonce",
          "type": "uint64",
          "internalType": "uint64"
        }
      ],
      "outputs": [
        {
          "name": "tokenID",
          "type": "uint8",
          "internalType": "uint8"
        },
        {
          "name": "recipientAddress",
          "type": "address",
          "internalType": "address"
        },
        {
          "name": "erc20Amount",
          "type": "uint256",
          "internalType": "uint256"
        },
        {
          "name": "senderAddress",
          "type": "bytes",
          "internalType": "bytes"
        }
      ],
      "stateMutability": "view"
    },
    {
      "type": "function",
      "name": "bridgeERC20",
      "inputs": [
        {
          "name": "tokenID",
          "type": "uint8",
          "internalType": "uint8"
        },
        {
          "name": "amount",
          "type": "uint256",
          "internalType": "uint256"
        },
        {
          "name": "recipientAddress",
          "type": "bytes",
          "internalType": "bytes"
        },
        {
          "name": "destinationChainID",
          "type": "uint8",
          "internalType": "uint8"
        }
      ],
      "outputs": [],
      "stateMutability": "nonpayable"
    },
    {
      "type": "function",
      "name": "bridgeETH",
      "inputs": [
        {
          "name": "recipientAddress",
          "type": "bytes",
          "internalType": "bytes"
        },
        {
          "name": "destinationChainID",
          "type": "uint8",
          "internalType": "uint8"
        }
      ],
      "outputs": [],
      "stateMutability": "payable"
    },
    {
      "type": "function",
      "name": "claimApprovedTransfer",
      "inputs": [
        {
          "name": "sourceChainID",
          "type": "uint8",
          "internalType": "uint8"
        },
        {
          "name": "nonce",
          "type": "uint64",
          "internalType": "uint64"
        }
      ],
      "outputs": [],
      "stateMutability": "nonpayable"
    },
    {
      "type": "function",
      "name": "committee",
      "inputs": [],
      "outputs": [
        {
          "name": "",
          "type": "address",
          "internalType": "contract IBridgeCommittee"
        }
      ],
      "stateMutability": "view"
    },
    {
      "type": "function",
      "name": "executeEmergencyOpWithSignatures",
      "inputs": [
        {
          "name": "signatures",
          "type": "bytes[]",
          "internalType": "bytes[]"
        },
        {
          "name": "message",
          "type": "tuple",
          "internalType": "struct BridgeUtils.Message",
          "components": [
            {
              "name": "messageType",
              "type": "uint8",
              "internalType": "uint8"
            },
            {
              "name": "version",
              "type": "uint8",
              "internalType": "uint8"
            },
            {
              "name": "nonce",
              "type": "uint64",
              "internalType": "uint64"
            },
            {
              "name": "chainID",
              "type": "uint8",
              "internalType": "uint8"
            },
            {
              "name": "payload",
              "type": "bytes",
              "internalType": "bytes"
            }
          ]
        }
      ],
      "outputs": [],
      "stateMutability": "nonpayable"
    },
    {
      "type": "function",
      "name": "initialize",
      "inputs": [
        {
          "name": "_committee",
          "type": "address",
          "internalType": "address"
        },
        {
          "name": "_vault",
          "type": "address",
          "internalType": "address"
        },
        {
          "name": "_limiter",
          "type": "address",
          "internalType": "address"
        }
      ],
      "outputs": [],
      "stateMutability": "nonpayable"
    },
    {
      "type": "function",
      "name": "isTransferProcessed",
      "inputs": [
        {
          "name": "nonce",
          "type": "uint64",
          "internalType": "uint64"
        }
      ],
      "outputs": [
        {
          "name": "isProcessed",
          "type": "bool",
          "internalType": "bool"
        }
      ],
      "stateMutability": "view"
    },
    {
      "type": "function",
      "name": "limiter",
      "inputs": [],
      "outputs": [
        {
          "name": "",
          "type": "address",
          "internalType": "contract IBridgeLimiter"
        }
      ],
      "stateMutability": "view"
    },
    {
      "type": "function",
      "name": "nonces",
      "inputs": [
        {
          "name": "messageType",
          "type": "uint8",
          "internalType": "uint8"
        }
      ],
      "outputs": [
        {
          "name": "nonce",
          "type": "uint64",
          "internalType": "uint64"
        }
      ],
      "stateMutability": "view"
    },
    {
      "type": "function",
      "name": "paused",
      "inputs": [],
      "outputs": [
        {
          "name": "",
          "type": "bool",
          "internalType": "bool"
        }
      ],
      "stateMutability": "view"
    },
    {
      "type": "function",
      "name": "proxiableUUID",
      "inputs": [],
      "outputs": [
        {
          "name": "",
          "type": "bytes32",
          "internalType": "bytes32"
        }
      ],
      "stateMutability": "view"
    },
    {
      "type": "function",
      "name": "transferApprovals",
      "inputs": [
        {
          "name": "chainID",
          "type": "uint8",
          "internalType": "uint8"
        },
        {
          "name": "nonce",
          "type": "uint64",
          "internalType": "uint64"
        }
      ],
      "outputs": [
        {
          "name": "approvalTimestamp",
          "type": "uint256",
          "internalType": "uint256"
        }
      ],
      "stateMutability": "view"
    },
    {
      "type": "function",
      "name": "transferBridgedTokensWithSignatures",
      "inputs": [
        {
          "name": "signatures",
          "type": "bytes[]",
          "internalType": "bytes[]"
        },
        {
          "name": "message",
          "type": "tuple",
          "internalType": "struct BridgeUtils.Message",
          "components": [
            {
              "name": "messageType",
              "type": "uint8",
              "internalType": "uint8"
            },
            {
              "name": "version",
              "type": "uint8",
              "internalType": "uint8"
            },
            {
              "name": "nonce",
              "type": "uint64",
              "internalType": "uint64"
            },
            {
              "name": "chainID",
              "type": "uint8",
              "internalType": "uint8"
            },
            {
              "name": "payload",
              "type": "bytes",
              "internalType": "bytes"
            }
          ]
        }
      ],
      "outputs": [],
      "stateMutability": "nonpayable"
    },
    {
      "type": "function",
      "name": "upgradeToAndCall",
      "inputs": [
        {
          "name": "newImplementation",
          "type": "address",
          "internalType": "address"
        },
        {
          "name": "data",
          "type": "bytes",
          "internalType": "bytes"
        }
      ],
      "outputs": [],
      "stateMutability": "payable"
    },
    {
      "type": "function",
      "name": "upgradeWithSignatures",
      "inputs": [
        {
          "name": "signatures",
          "type": "bytes[]",
          "internalType": "bytes[]"
        },
        {
          "name": "message",
          "type": "tuple",
          "internalType": "struct BridgeUtils.Message",
          "components": [
            {
              "name": "messageType",
              "type": "uint8",
              "internalType": "uint8"
            },
            {
              "name": "version",
              "type": "uint8",
              "internalType": "uint8"
            },
            {
              "name": "nonce",
              "type": "uint64",
              "internalType": "uint64"
            },
            {
              "name": "chainID",
              "type": "uint8",
              "internalType": "uint8"
            },
            {
              "name": "payload",
              "type": "bytes",
              "internalType": "bytes"
            }
          ]
        }
      ],
      "outputs": [],
      "stateMutability": "nonpayable"
    },
    {
      "type": "function",
      "name": "vault",
      "inputs": [],
      "outputs": [
        {
          "name": "",
          "type": "address",
          "internalType": "contract IBridgeVault"
        }
      ],
      "stateMutability": "view"
    },
    {
      "type": "event",
      "name": "ContractUpgraded",
      "inputs": [
        {
          "name": "nonce",
          "type": "uint256",
          "indexed": false,
          "internalType": "uint256"
        },
        {
          "name": "proxy",
          "type": "address",
          "indexed": false,
          "internalType": "address"
        },
        {
          "name": "implementation",
          "type": "address",
          "indexed": false,
          "internalType": "address"
        }
      ],
      "anonymous": false
    },
    {
      "type": "event",
      "name": "EmergencyOperation",
      "inputs": [
        {
          "name": "nonce",
          "type": "uint64",
          "indexed": false,
          "internalType": "uint64"
        },
        {
          "name": "paused",
          "type": "bool",
          "indexed": false,
          "internalType": "bool"
        }
      ],
      "anonymous": false
    },
    {
      "type": "event",
      "name": "Initialized",
      "inputs": [
        {
          "name": "version",
          "type": "uint64",
          "indexed": false,
          "internalType": "uint64"
        }
      ],
      "anonymous": false
    },
    {
      "type": "event",
      "name": "Paused",
      "inputs": [
        {
          "name": "account",
          "type": "address",
          "indexed": false,
          "internalType": "address"
        }
      ],
      "anonymous": false
    },
    {
      "type": "event",
      "name": "TokensClaimed",
      "inputs": [
        {
          "name": "sourceChainID",
          "type": "uint8",
          "indexed": true,
          "internalType": "uint8"
        },
        {
          "name": "nonce",
          "type": "uint64",
          "indexed": true,
          "internalType": "uint64"
        },
        {
          "name": "destinationChainID",
          "type": "uint8",
          "indexed": true,
          "internalType": "uint8"
        },
        {
          "name": "tokenID",
          "type": "uint8",
          "indexed": false,
          "internalType": "uint8"
        },
        {
          "name": "erc20AdjustedAmount",
          "type": "uint256",
          "indexed": false,
          "internalType": "uint256"
        },
        {
          "name": "senderAddress",
          "type": "bytes",
          "indexed": false,
          "internalType": "bytes"
        },
        {
          "name": "recipientAddress",
          "type": "address",
          "indexed": false,
          "internalType": "address"
        }
      ],
      "anonymous": false
    },
    {
      "type": "event",
      "name": "TokensDeposited",
      "inputs": [
        {
          "name": "sourceChainID",
          "type": "uint8",
          "indexed": true,
          "internalType": "uint8"
        },
        {
          "name": "nonce",
          "type": "uint64",
          "indexed": true,
          "internalType": "uint64"
        },
        {
          "name": "destinationChainID",
          "type": "uint8",
          "indexed": true,
          "internalType": "uint8"
        },
        {
          "name": "tokenID",
          "type": "uint8",
          "indexed": false,
          "internalType": "uint8"
        },
        {
          "name": "starcoinAdjustedAmount",
          "type": "uint64",
          "indexed": false,
          "internalType": "uint64"
        },
        {
          "name": "senderAddress",
          "type": "address",
          "indexed": false,
          "internalType": "address"
        },
        {
          "name": "recipientAddress",
          "type": "bytes",
          "indexed": false,
          "internalType": "bytes"
        }
      ],
      "anonymous": false
    },
    {
      "type": "event",
      "name": "TransferApproved",
      "inputs": [
        {
          "name": "sourceChainID",
          "type": "uint8",
          "indexed": true,
          "internalType": "uint8"
        },
        {
          "name": "nonce",
          "type": "uint64",
          "indexed": true,
          "internalType": "uint64"
        },
        {
          "name": "destinationChainID",
          "type": "uint8",
          "indexed": true,
          "internalType": "uint8"
        },
        {
          "name": "tokenID",
          "type": "uint8",
          "indexed": false,
          "internalType": "uint8"
        },
        {
          "name": "erc20AdjustedAmount",
          "type": "uint256",
          "indexed": false,
          "internalType": "uint256"
        },
        {
          "name": "senderAddress",
          "type": "bytes",
          "indexed": false,
          "internalType": "bytes"
        },
        {
          "name": "recipientAddress",
          "type": "address",
          "indexed": false,
          "internalType": "address"
        },
        {
          "name": "approvalTimestamp",
          "type": "uint256",
          "indexed": false,
          "internalType": "uint256"
        }
      ],
      "anonymous": false
    },
    {
      "type": "event",
      "name": "Unpaused",
      "inputs": [
        {
          "name": "account",
          "type": "address",
          "indexed": false,
          "internalType": "address"
        }
      ],
      "anonymous": false
    },
    {
      "type": "event",
      "name": "Upgraded",
      "inputs": [
        {
          "name": "implementation",
          "type": "address",
          "indexed": true,
          "internalType": "address"
        }
      ],
      "anonymous": false
    },
    {
      "type": "error",
      "name": "AddressEmptyCode",
      "inputs": [
        {
          "name": "target",
          "type": "address",
          "internalType": "address"
        }
      ]
    },
    {
      "type": "error",
      "name": "AddressInsufficientBalance",
      "inputs": [
        {
          "name": "account",
          "type": "address",
          "internalType": "address"
        }
      ]
    },
    {
      "type": "error",
      "name": "ERC1967InvalidImplementation",
      "inputs": [
        {
          "name": "implementation",
          "type": "address",
          "internalType": "address"
        }
      ]
    },
    {
      "type": "error",
      "name": "ERC1967NonPayable",
      "inputs": []
    },
    {
      "type": "error",
      "name": "EnforcedPause",
      "inputs": []
    },
    {
      "type": "error",
      "name": "ExpectedPause",
      "inputs": []
    },
    {
      "type": "error",
      "name": "FailedInnerCall",
      "inputs": []
    },
    {
      "type": "error",
      "name": "InvalidInitialization",
      "inputs": []
    },
    {
      "type": "error",
      "name": "NotInitializing",
      "inputs": []
    },
    {
      "type": "error",
      "name": "ReentrancyGuardReentrantCall",
      "inputs": []
    },
    {
      "type": "error",
      "name": "SafeERC20FailedOperation",
      "inputs": [
        {
          "name": "token",
          "type": "address",
          "internalType": "address"
        }
      ]
    },
    {
      "type": "error",
      "name": "UUPSUnauthorizedCallContext",
      "inputs": []
    },
    {
      "type": "error",
      "name": "UUPSUnsupportedProxiableUUID",
      "inputs": [
        {
          "name": "slot",
          "type": "bytes32",
          "internalType": "bytes32"
        }
      ]
    }
  ],
  "bytecode": {
    "object": "0x60a06040523073ffffffffffffffffffffffffffffffffffffffff1660809073ffffffffffffffffffffffffffffffffffffffff1681525034801562000043575f80fd5b50620000546200005a60201b60201c565b620001c4565b5f6200006b6200015e60201b60201c565b9050805f0160089054906101000a900460ff1615620000b6576040517ff92ee8a900000000000000000000000000000000000000000000000000000000815260040160405180910390fd5b67ffffffffffffffff8016815f015f9054906101000a900467ffffffffffffffff1667ffffffffffffffff16146200015b5767ffffffffffffffff815f015f6101000a81548167ffffffffffffffff021916908367ffffffffffffffff1602179055507fc7f505b2f371ae2175ee4913f4499e1f2633a7b5936321eed1cdaeb6115181d267ffffffffffffffff604051620001529190620001a9565b60405180910390a15b50565b5f7ff0c57e16840df040f15088dc2f81fe391c3923bec73e23a9662efc9c229c6a00905090565b5f67ffffffffffffffff82169050919050565b620001a38162000185565b82525050565b5f602082019050620001be5f83018462000198565b92915050565b60805161776a620001eb5f395f8181613c5801528181613cad01526146a1015261776a5ff3fe608060405260043610610113575f3560e01c806374b87f671161009f578063beb0d55c11610063578063beb0d55c1461038a578063c0c53b8b146103b2578063d864e740146103da578063fa72a6d014610404578063fbfa77cf1461042c57610113565b806374b87f67146102b65780637a2db6cb146102e05780639449ebd21461031c578063a6f740f614610338578063ad3cb1cc1461036057610113565b806352d1902d116100e657806352d1902d146101bf5780635458ea9e146101e95780635626d213146102255780635c975abb1461024d578063719f94c41461027757610113565b8063212afaff146101175780634f1ef2861461013f5780635035bda21461015b578063526e590214610197575b5f80fd5b348015610122575f80fd5b5061013d6004803603810190610138919061522f565b610456565b005b61015960048036038101906101549190615309565b610c2f565b005b348015610166575f80fd5b50610181600480360381019061017c9190615363565b610c4e565b60405161018e91906153b0565b60405180910390f35b3480156101a2575f80fd5b506101bd60048036038101906101b89190615582565b610c72565b005b3480156101ca575f80fd5b506101d361187e565b6040516101e09190615610565b60405180910390f35b3480156101f4575f80fd5b5061020f600480360381019061020a9190615629565b6118af565b60405161021c919061566e565b60405180910390f35b348015610230575f80fd5b5061024b60048036038101906102469190615687565b6118cc565b005b348015610258575f80fd5b50610261611ea9565b60405161026e919061566e565b60405180910390f35b348015610282575f80fd5b5061029d60048036038101906102989190615687565b611ecb565b6040516102ad949392919061576c565b60405180910390f35b3480156102c1575f80fd5b506102ca611fb3565b6040516102d79190615811565b60405180910390f35b3480156102eb575f80fd5b5061030660048036038101906103019190615687565b611fd8565b604051610313919061582a565b60405180910390f35b61033660048036038101906103319190615843565b611ff8565b005b348015610343575f80fd5b5061035e60048036038101906103599190615582565b6125b2565b005b34801561036b575f80fd5b50610374612944565b60405161038191906158ef565b60405180910390f35b348015610395575f80fd5b506103b060048036038101906103ab9190615582565b61297d565b005b3480156103bd575f80fd5b506103d860048036038101906103d3919061590f565b613312565b005b3480156103e5575f80fd5b506103ee61351d565b6040516103fb919061597f565b60405180910390f35b34801561040f575f80fd5b5061042a60048036038101906104259190615582565b613540565b005b348015610437575f80fd5b50610440613952565b60405161044d91906159b8565b60405180910390f35b61045e613977565b6104666139b8565b805f8054906101000a900473ffffffffffffffffffffffffffffffffffffffff1673ffffffffffffffffffffffffffffffffffffffff166379502c556040518163ffffffff1660e01b8152600401602060405180830381865afa1580156104cf573d5f803e3d5ffd5b505050506040513d601f19601f820116820180604052508101906104f39190615a0c565b73ffffffffffffffffffffffffffffffffffffffff166373209533826040518263ffffffff1660e01b815260040161052b9190615a37565b602060405180830381865afa158015610546573d5f803e3d5ffd5b505050506040513d601f19601f8201168201806040525081019061056a9190615a7a565b6105a9576040517f08c379a00000000000000000000000000000000000000000000000000000000081526004016105a090615b15565b60405180910390fd5b601060ff168351146105f0576040517f08c379a00000000000000000000000000000000000000000000000000000000081526004016105e790615ba3565b60405180910390fd5b5f805f9054906101000a900473ffffffffffffffffffffffffffffffffffffffff1673ffffffffffffffffffffffffffffffffffffffff166379502c556040518163ffffffff1660e01b8152600401602060405180830381865afa15801561065a573d5f803e3d5ffd5b505050506040513d601f19601f8201168201806040525081019061067e9190615a0c565b90508073ffffffffffffffffffffffffffffffffffffffff1663438cb46a876040518263ffffffff1660e01b81526004016106b99190615a37565b602060405180830381865afa1580156106d4573d5f803e3d5ffd5b505050506040513d601f19601f820116820180604052508101906106f89190615a7a565b610737576040517f08c379a000000000000000000000000000000000000000000000000000000000815260040161072e90615c31565b60405180910390fd5b5f8173ffffffffffffffffffffffffffffffffffffffff1663e5324889886040518263ffffffff1660e01b81526004016107719190615a37565b602060405180830381865afa15801561078c573d5f803e3d5ffd5b505050506040513d601f19601f820116820180604052508101906107b09190615c63565b9050858173ffffffffffffffffffffffffffffffffffffffff1663dd62ed3e33306040518363ffffffff1660e01b81526004016107ee929190615c8e565b602060405180830381865afa158015610809573d5f803e3d5ffd5b505050506040513d601f19601f8201168201806040525081019061082d9190615cc9565b101561086e576040517f08c379a000000000000000000000000000000000000000000000000000000000815260040161086590615d64565b60405180910390fd5b5f8173ffffffffffffffffffffffffffffffffffffffff166370a0823160365f9054906101000a900473ffffffffffffffffffffffffffffffffffffffff166040518263ffffffff1660e01b81526004016108c99190615d82565b602060405180830381865afa1580156108e4573d5f803e3d5ffd5b505050506040513d601f19601f820116820180604052508101906109089190615cc9565b9050610937823360365f9054906101000a900473ffffffffffffffffffffffffffffffffffffffff168a613a0c565b5f8273ffffffffffffffffffffffffffffffffffffffff166370a0823160365f9054906101000a900473ffffffffffffffffffffffffffffffffffffffff166040518263ffffffff1660e01b81526004016109929190615d82565b602060405180830381865afa1580156109ad573d5f803e3d5ffd5b505050506040513d601f19601f820116820180604052508101906109d19190615cc9565b90505f82826109e09190615dc8565b90505f610ad18573ffffffffffffffffffffffffffffffffffffffff1663313ce5676040518163ffffffff1660e01b8152600401602060405180830381865afa158015610a2f573d5f803e3d5ffd5b505050506040513d601f19601f82011682018060405250810190610a539190615e0f565b8773ffffffffffffffffffffffffffffffffffffffff1663a31534168e6040518263ffffffff1660e01b8152600401610a8c9190615a37565b602060405180830381865afa158015610aa7573d5f803e3d5ffd5b505050506040513d601f19601f82011682018060405250810190610acb9190615e0f565b84613a8e565b90508760ff1660015f8060ff1660ff1681526020019081526020015f205f9054906101000a900467ffffffffffffffff1667ffffffffffffffff168773ffffffffffffffffffffffffffffffffffffffff1663adc879e96040518163ffffffff1660e01b8152600401602060405180830381865afa158015610b55573d5f803e3d5ffd5b505050506040513d601f19601f82011682018060405250810190610b799190615e0f565b60ff167fa0f1d54820817ede8517e70a3d0a9197c015471c5360d2119b759f0359858ce68e85338f604051610bb19493929190615e3a565b60405180910390a460015f8060ff1660ff1681526020019081526020015f205f81819054906101000a900467ffffffffffffffff1680929190610bf390615e84565b91906101000a81548167ffffffffffffffff021916908367ffffffffffffffff1602179055505050505050505050610c29613c3f565b50505050565b610c37613c56565b610c4082613d3c565b610c4a8282613da6565b5050565b6001602052805f5260405f205f915054906101000a900467ffffffffffffffff1681565b610c7a6139b8565b80825f8060ff16835f015160ff1614610cc8576040517f08c379a0000000000000000000000000000000000000000000000000000000008152600401610cbf90615f23565b60405180910390fd5b5f8054906101000a900473ffffffffffffffffffffffffffffffffffffffff1673ffffffffffffffffffffffffffffffffffffffff1663f188949c83856040518363ffffffff1660e01b8152600401610d229291906160d5565b5f6040518083038186803b158015610d38575f80fd5b505afa158015610d4a573d5f803e3d5ffd5b505050505f60ff168160ff1614610f8a575f8054906101000a900473ffffffffffffffffffffffffffffffffffffffff1673ffffffffffffffffffffffffffffffffffffffff166379502c556040518163ffffffff1660e01b8152600401602060405180830381865afa158015610dc3573d5f803e3d5ffd5b505050506040513d601f19601f82011682018060405250810190610de79190615a0c565b73ffffffffffffffffffffffffffffffffffffffff1663adc879e96040518163ffffffff1660e01b8152600401602060405180830381865afa158015610e2f573d5f803e3d5ffd5b505050506040513d601f19601f82011682018060405250810190610e539190615e0f565b60ff16836060015160ff1614610e9e576040517f08c379a0000000000000000000000000000000000000000000000000000000008152600401610e959061617a565b60405180910390fd5b60015f845f015160ff1660ff1681526020019081526020015f205f9054906101000a900467ffffffffffffffff1667ffffffffffffffff16836040015167ffffffffffffffff1614610f25576040517f08c379a0000000000000000000000000000000000000000000000000000000008152600401610f1c906161e2565b60405180910390fd5b60015f845f015160ff1660ff1681526020019081526020015f205f81819054906101000a900467ffffffffffffffff1680929190610f6290615e84565b91906101000a81548167ffffffffffffffff021916908367ffffffffffffffff160217905550505b83606001515f8054906101000a900473ffffffffffffffffffffffffffffffffffffffff1673ffffffffffffffffffffffffffffffffffffffff166379502c556040518163ffffffff1660e01b8152600401602060405180830381865afa158015610ff7573d5f803e3d5ffd5b505050506040513d601f19601f8201168201806040525081019061101b9190615a0c565b73ffffffffffffffffffffffffffffffffffffffff166373209533826040518263ffffffff1660e01b81526004016110539190615a37565b602060405180830381865afa15801561106e573d5f803e3d5ffd5b505050506040513d601f19601f820116820180604052508101906110929190615a7a565b6110d1576040517f08c379a00000000000000000000000000000000000000000000000000000000081526004016110c890615b15565b60405180910390fd5b60355f866040015167ffffffffffffffff1667ffffffffffffffff1681526020019081526020015f205f9054906101000a900460ff1615611147576040517f08c379a000000000000000000000000000000000000000000000000000000000815260040161113e90616270565b60405180910390fd5b5f60385f876060015160ff1660ff1681526020019081526020015f205f876040015167ffffffffffffffff1667ffffffffffffffff1681526020019081526020015f2054146111cb576040517f08c379a00000000000000000000000000000000000000000000000000000000081526004016111c2906162fe565b60405180910390fd5b5f805f9054906101000a900473ffffffffffffffffffffffffffffffffffffffff1673ffffffffffffffffffffffffffffffffffffffff166379502c556040518163ffffffff1660e01b8152600401602060405180830381865afa158015611235573d5f803e3d5ffd5b505050506040513d601f19601f820116820180604052508101906112599190615a0c565b90505f6112698760800151613ec4565b90508173ffffffffffffffffffffffffffffffffffffffff1663adc879e96040518163ffffffff1660e01b8152600401602060405180830381865afa1580156112b4573d5f803e3d5ffd5b505050506040513d601f19601f820116820180604052508101906112d89190615e0f565b60ff16816040015160ff1614611323576040517f08c379a000000000000000000000000000000000000000000000000000000000815260040161131a9061638c565b60405180910390fd5b5f6114958373ffffffffffffffffffffffffffffffffffffffff1663e53248898460a001516040518263ffffffff1660e01b81526004016113649190615a37565b602060405180830381865afa15801561137f573d5f803e3d5ffd5b505050506040513d601f19601f820116820180604052508101906113a39190615c63565b73ffffffffffffffffffffffffffffffffffffffff1663313ce5676040518163ffffffff1660e01b8152600401602060405180830381865afa1580156113eb573d5f803e3d5ffd5b505050506040513d601f19601f8201168201806040525081019061140f9190615e0f565b8473ffffffffffffffffffffffffffffffffffffffff1663a31534168560a001516040518263ffffffff1660e01b815260040161144c9190615a37565b602060405180830381865afa158015611467573d5f803e3d5ffd5b505050506040513d601f19601f8201168201806040525081019061148b9190615e0f565b8460c001516141e1565b90505f8373ffffffffffffffffffffffffffffffffffffffff1663923ab3b76040518163ffffffff1660e01b8152600401602060405180830381865afa1580156114e1573d5f803e3d5ffd5b505050506040513d601f19601f8201168201806040525081019061150591906163be565b67ffffffffffffffff16036116425761152c88606001518360a00151846080015184614285565b600160355f8a6040015167ffffffffffffffff1667ffffffffffffffff1681526020019081526020015f205f6101000a81548160ff0219169083151502179055508273ffffffffffffffffffffffffffffffffffffffff1663adc879e96040518163ffffffff1660e01b8152600401602060405180830381865afa1580156115b6573d5f803e3d5ffd5b505050506040513d601f19601f820116820180604052508101906115da9190615e0f565b60ff16886040015167ffffffffffffffff16896060015160ff167f933e8377dca7a8cf67d2bf865c4d8c1c45347815760900f9d2eb5655a06943af8560a00151858760200151886080015160405161163594939291906163e9565b60405180910390a461186b565b4260385f8a6060015160ff1660ff1681526020019081526020015f205f8a6040015167ffffffffffffffff1667ffffffffffffffff1681526020019081526020015f208190555060405180608001604052808360a0015160ff168152602001836080015173ffffffffffffffffffffffffffffffffffffffff168152602001828152602001836020015181525060395f8a6060015160ff1660ff1681526020019081526020015f205f8a6040015167ffffffffffffffff1667ffffffffffffffff1681526020019081526020015f205f820151815f015f6101000a81548160ff021916908360ff1602179055506020820151815f0160016101000a81548173ffffffffffffffffffffffffffffffffffffffff021916908373ffffffffffffffffffffffffffffffffffffffff1602179055506040820151816001015560608201518160020190816117949190616624565b509050508273ffffffffffffffffffffffffffffffffffffffff1663adc879e96040518163ffffffff1660e01b8152600401602060405180830381865afa1580156117e1573d5f803e3d5ffd5b505050506040513d601f19601f820116820180604052508101906118059190615e0f565b60ff16886040015167ffffffffffffffff16896060015160ff167f07ba632dc0b744ed86746fbdcd0cf9cc88c720c94d4c751adfeec213a869925e8560a001518587602001518860800151426040516118629594939291906166f3565b60405180910390a45b5050505050505061187a613c3f565b5050565b5f61188761469f565b7f360894a13ba1a3210667c828492db98dca3e2076cc3735a920a3ca505d382bbc5f1b905090565b6035602052805f5260405f205f915054906101000a900460ff1681565b6118d46139b8565b6118dc613977565b60355f8267ffffffffffffffff1667ffffffffffffffff1681526020019081526020015f205f9054906101000a900460ff161561194e576040517f08c379a0000000000000000000000000000000000000000000000000000000008152600401611945906167bb565b60405180910390fd5b5f60385f8460ff1660ff1681526020019081526020015f205f8367ffffffffffffffff1667ffffffffffffffff1681526020019081526020015f2054036119ca576040517f08c379a00000000000000000000000000000000000000000000000000000000081526004016119c190616849565b60405180910390fd5b5f805f9054906101000a900473ffffffffffffffffffffffffffffffffffffffff1673ffffffffffffffffffffffffffffffffffffffff166379502c556040518163ffffffff1660e01b8152600401602060405180830381865afa158015611a34573d5f803e3d5ffd5b505050506040513d601f19601f82011682018060405250810190611a589190615a0c565b90505f60385f8560ff1660ff1681526020019081526020015f205f8467ffffffffffffffff1667ffffffffffffffff1681526020019081526020015f205490505f8273ffffffffffffffffffffffffffffffffffffffff1663923ab3b76040518163ffffffff1660e01b8152600401602060405180830381865afa158015611ae2573d5f803e3d5ffd5b505050506040513d601f19601f82011682018060405250810190611b0691906163be565b90508067ffffffffffffffff1682611b1e9190616867565b421015611b60576040517f08c379a0000000000000000000000000000000000000000000000000000000008152600401611b579061690a565b60405180910390fd5b5f60395f8760ff1660ff1681526020019081526020015f205f8667ffffffffffffffff1667ffffffffffffffff1681526020019081526020015f206040518060800160405290815f82015f9054906101000a900460ff1660ff1660ff1681526020015f820160019054906101000a900473ffffffffffffffffffffffffffffffffffffffff1673ffffffffffffffffffffffffffffffffffffffff1673ffffffffffffffffffffffffffffffffffffffff16815260200160018201548152602001600282018054611c3090616460565b80601f0160208091040260200160405190810160405280929190818152602001828054611c5c90616460565b8015611ca75780601f10611c7e57610100808354040283529160200191611ca7565b820191905f5260205f20905b815481529060010190602001808311611c8a57829003601f168201915b5050505050815250509050611cc986825f015183602001518460400151614285565b600160355f8767ffffffffffffffff1667ffffffffffffffff1681526020019081526020015f205f6101000a81548160ff02191690831515021790555060385f8760ff1660ff1681526020019081526020015f205f8667ffffffffffffffff1667ffffffffffffffff1681526020019081526020015f205f905560395f8760ff1660ff1681526020019081526020015f205f8667ffffffffffffffff1667ffffffffffffffff1681526020019081526020015f205f8082015f6101000a81549060ff02191690555f820160016101000a81549073ffffffffffffffffffffffffffffffffffffffff0219169055600182015f9055600282015f611dcc9190614fbe565b50508373ffffffffffffffffffffffffffffffffffffffff1663adc879e96040518163ffffffff1660e01b8152600401602060405180830381865afa158015611e17573d5f803e3d5ffd5b505050506040513d601f19601f82011682018060405250810190611e3b9190615e0f565b60ff168567ffffffffffffffff168760ff167f933e8377dca7a8cf67d2bf865c4d8c1c45347815760900f9d2eb5655a06943af845f0151856040015186606001518760200151604051611e9194939291906163e9565b60405180910390a450505050611ea5613c3f565b5050565b5f80611eb3614726565b9050805f015f9054906101000a900460ff1691505090565b6039602052815f5260405f20602052805f5260405f205f9150915050805f015f9054906101000a900460ff1690805f0160019054906101000a900473ffffffffffffffffffffffffffffffffffffffff1690806001015490806002018054611f3290616460565b80601f0160208091040260200160405190810160405280929190818152602001828054611f5e90616460565b8015611fa95780601f10611f8057610100808354040283529160200191611fa9565b820191905f5260205f20905b815481529060010190602001808311611f8c57829003601f168201915b5050505050905084565b60375f9054906101000a900473ffffffffffffffffffffffffffffffffffffffff1681565b6038602052815f5260405f20602052805f5260405f205f91509150505481565b612000613977565b6120086139b8565b805f8054906101000a900473ffffffffffffffffffffffffffffffffffffffff1673ffffffffffffffffffffffffffffffffffffffff166379502c556040518163ffffffff1660e01b8152600401602060405180830381865afa158015612071573d5f803e3d5ffd5b505050506040513d601f19601f820116820180604052508101906120959190615a0c565b73ffffffffffffffffffffffffffffffffffffffff166373209533826040518263ffffffff1660e01b81526004016120cd9190615a37565b602060405180830381865afa1580156120e8573d5f803e3d5ffd5b505050506040513d601f19601f8201168201806040525081019061210c9190615a7a565b61214b576040517f08c379a000000000000000000000000000000000000000000000000000000000815260040161214290615b15565b60405180910390fd5b601060ff16835114612192576040517f08c379a000000000000000000000000000000000000000000000000000000000815260040161218990615ba3565b60405180910390fd5b5f3490505f60365f9054906101000a900473ffffffffffffffffffffffffffffffffffffffff1673ffffffffffffffffffffffffffffffffffffffff16826040516121dc90616955565b5f6040518083038185875af1925050503d805f8114612216576040519150601f19603f3d011682016040523d82523d5f602084013e61221b565b606091505b505090508061225f576040517f08c379a0000000000000000000000000000000000000000000000000000000008152600401612256906169d9565b60405180910390fd5b5f805f9054906101000a900473ffffffffffffffffffffffffffffffffffffffff1673ffffffffffffffffffffffffffffffffffffffff166379502c556040518163ffffffff1660e01b8152600401602060405180830381865afa1580156122c9573d5f803e3d5ffd5b505050506040513d601f19601f820116820180604052508101906122ed9190615a0c565b90505f6124578273ffffffffffffffffffffffffffffffffffffffff1663e532488960026040518263ffffffff1660e01b815260040161232d9190615a37565b602060405180830381865afa158015612348573d5f803e3d5ffd5b505050506040513d601f19601f8201168201806040525081019061236c9190615c63565b73ffffffffffffffffffffffffffffffffffffffff1663313ce5676040518163ffffffff1660e01b8152600401602060405180830381865afa1580156123b4573d5f803e3d5ffd5b505050506040513d601f19601f820116820180604052508101906123d89190615e0f565b8373ffffffffffffffffffffffffffffffffffffffff1663a315341660026040518263ffffffff1660e01b81526004016124129190615a37565b602060405180830381865afa15801561242d573d5f803e3d5ffd5b505050506040513d601f19601f820116820180604052508101906124519190615e0f565b86613a8e565b90508560ff1660015f8060ff1660ff1681526020019081526020015f205f9054906101000a900467ffffffffffffffff1667ffffffffffffffff168373ffffffffffffffffffffffffffffffffffffffff1663adc879e96040518163ffffffff1660e01b8152600401602060405180830381865afa1580156124db573d5f803e3d5ffd5b505050506040513d601f19601f820116820180604052508101906124ff9190615e0f565b60ff167fa0f1d54820817ede8517e70a3d0a9197c015471c5360d2119b759f0359858ce6600285338d6040516125389493929190615e3a565b60405180910390a460015f8060ff1660ff1681526020019081526020015f205f81819054906101000a900467ffffffffffffffff168092919061257a90615e84565b91906101000a81548167ffffffffffffffff021916908367ffffffffffffffff1602179055505050505050506125ae613c3f565b5050565b6125ba6139b8565b808260028060ff16835f015160ff1614612609576040517f08c379a000000000000000000000000000000000000000000000000000000000815260040161260090615f23565b60405180910390fd5b5f8054906101000a900473ffffffffffffffffffffffffffffffffffffffff1673ffffffffffffffffffffffffffffffffffffffff1663f188949c83856040518363ffffffff1660e01b81526004016126639291906160d5565b5f6040518083038186803b158015612679575f80fd5b505afa15801561268b573d5f803e3d5ffd5b505050505f60ff168160ff16146128cb575f8054906101000a900473ffffffffffffffffffffffffffffffffffffffff1673ffffffffffffffffffffffffffffffffffffffff166379502c556040518163ffffffff1660e01b8152600401602060405180830381865afa158015612704573d5f803e3d5ffd5b505050506040513d601f19601f820116820180604052508101906127289190615a0c565b73ffffffffffffffffffffffffffffffffffffffff1663adc879e96040518163ffffffff1660e01b8152600401602060405180830381865afa158015612770573d5f803e3d5ffd5b505050506040513d601f19601f820116820180604052508101906127949190615e0f565b60ff16836060015160ff16146127df576040517f08c379a00000000000000000000000000000000000000000000000000000000081526004016127d69061617a565b60405180910390fd5b60015f845f015160ff1660ff1681526020019081526020015f205f9054906101000a900467ffffffffffffffff1667ffffffffffffffff16836040015167ffffffffffffffff1614612866576040517f08c379a000000000000000000000000000000000000000000000000000000000815260040161285d906161e2565b60405180910390fd5b60015f845f015160ff1660ff1681526020019081526020015f205f81819054906101000a900467ffffffffffffffff16809291906128a390615e84565b91906101000a81548167ffffffffffffffff021916908367ffffffffffffffff160217905550505b5f6128d9856080015161474d565b905080156128ee576128e961480b565b6128f7565b6128f661487a565b5b7f0838fecaac9057733ed7f9bb6e8ecfacf0d9c68d2f9b06e84f8c7f6098814bfb85604001518260405161292c9291906169f7565b60405180910390a150505050612940613c3f565b5050565b6040518060400160405280600581526020017f352e302e3000000000000000000000000000000000000000000000000000000081525081565b6129856139b8565b80825f8060ff16835f015160ff16146129d3576040517f08c379a00000000000000000000000000000000000000000000000000000000081526004016129ca90615f23565b60405180910390fd5b5f8054906101000a900473ffffffffffffffffffffffffffffffffffffffff1673ffffffffffffffffffffffffffffffffffffffff1663f188949c83856040518363ffffffff1660e01b8152600401612a2d9291906160d5565b5f6040518083038186803b158015612a43575f80fd5b505afa158015612a55573d5f803e3d5ffd5b505050505f60ff168160ff1614612c95575f8054906101000a900473ffffffffffffffffffffffffffffffffffffffff1673ffffffffffffffffffffffffffffffffffffffff166379502c556040518163ffffffff1660e01b8152600401602060405180830381865afa158015612ace573d5f803e3d5ffd5b505050506040513d601f19601f82011682018060405250810190612af29190615a0c565b73ffffffffffffffffffffffffffffffffffffffff1663adc879e96040518163ffffffff1660e01b8152600401602060405180830381865afa158015612b3a573d5f803e3d5ffd5b505050506040513d601f19601f82011682018060405250810190612b5e9190615e0f565b60ff16836060015160ff1614612ba9576040517f08c379a0000000000000000000000000000000000000000000000000000000008152600401612ba09061617a565b60405180910390fd5b60015f845f015160ff1660ff1681526020019081526020015f205f9054906101000a900467ffffffffffffffff1667ffffffffffffffff16836040015167ffffffffffffffff1614612c30576040517f08c379a0000000000000000000000000000000000000000000000000000000008152600401612c27906161e2565b60405180910390fd5b60015f845f015160ff1660ff1681526020019081526020015f205f81819054906101000a900467ffffffffffffffff1680929190612c6d90615e84565b91906101000a81548167ffffffffffffffff021916908367ffffffffffffffff160217905550505b83606001515f8054906101000a900473ffffffffffffffffffffffffffffffffffffffff1673ffffffffffffffffffffffffffffffffffffffff166379502c556040518163ffffffff1660e01b8152600401602060405180830381865afa158015612d02573d5f803e3d5ffd5b505050506040513d601f19601f82011682018060405250810190612d269190615a0c565b73ffffffffffffffffffffffffffffffffffffffff166373209533826040518263ffffffff1660e01b8152600401612d5e9190615a37565b602060405180830381865afa158015612d79573d5f803e3d5ffd5b505050506040513d601f19601f82011682018060405250810190612d9d9190615a7a565b612ddc576040517f08c379a0000000000000000000000000000000000000000000000000000000008152600401612dd390615b15565b60405180910390fd5b60355f866040015167ffffffffffffffff1667ffffffffffffffff1681526020019081526020015f205f9054906101000a900460ff1615612e52576040517f08c379a0000000000000000000000000000000000000000000000000000000008152600401612e4990616270565b60405180910390fd5b5f805f9054906101000a900473ffffffffffffffffffffffffffffffffffffffff1673ffffffffffffffffffffffffffffffffffffffff166379502c556040518163ffffffff1660e01b8152600401602060405180830381865afa158015612ebc573d5f803e3d5ffd5b505050506040513d601f19601f82011682018060405250810190612ee09190615a0c565b90505f8173ffffffffffffffffffffffffffffffffffffffff1663923ab3b76040518163ffffffff1660e01b8152600401602060405180830381865afa158015612f2c573d5f803e3d5ffd5b505050506040513d601f19601f82011682018060405250810190612f5091906163be565b67ffffffffffffffff1614612f9a576040517f08c379a0000000000000000000000000000000000000000000000000000000008152600401612f9190616ab4565b60405180910390fd5b5f612fa88760800151613ec4565b90508173ffffffffffffffffffffffffffffffffffffffff1663adc879e96040518163ffffffff1660e01b8152600401602060405180830381865afa158015612ff3573d5f803e3d5ffd5b505050506040513d601f19601f820116820180604052508101906130179190615e0f565b60ff16816040015160ff1614613062576040517f08c379a00000000000000000000000000000000000000000000000000000000081526004016130599061638c565b60405180910390fd5b5f6131d48373ffffffffffffffffffffffffffffffffffffffff1663e53248898460a001516040518263ffffffff1660e01b81526004016130a39190615a37565b602060405180830381865afa1580156130be573d5f803e3d5ffd5b505050506040513d601f19601f820116820180604052508101906130e29190615c63565b73ffffffffffffffffffffffffffffffffffffffff1663313ce5676040518163ffffffff1660e01b8152600401602060405180830381865afa15801561312a573d5f803e3d5ffd5b505050506040513d601f19601f8201168201806040525081019061314e9190615e0f565b8473ffffffffffffffffffffffffffffffffffffffff1663a31534168560a001516040518263ffffffff1660e01b815260040161318b9190615a37565b602060405180830381865afa1580156131a6573d5f803e3d5ffd5b505050506040513d601f19601f820116820180604052508101906131ca9190615e0f565b8460c001516141e1565b90506131ee88606001518360a00151846080015184614285565b600160355f8a6040015167ffffffffffffffff1667ffffffffffffffff1681526020019081526020015f205f6101000a81548160ff0219169083151502179055508273ffffffffffffffffffffffffffffffffffffffff1663adc879e96040518163ffffffff1660e01b8152600401602060405180830381865afa158015613278573d5f803e3d5ffd5b505050506040513d601f19601f8201168201806040525081019061329c9190615e0f565b60ff16886040015167ffffffffffffffff16896060015160ff167f933e8377dca7a8cf67d2bf865c4d8c1c45347815760900f9d2eb5655a06943af8560a0015185876020015188608001516040516132f794939291906163e9565b60405180910390a45050505050505061330e613c3f565b5050565b5f61331b6148e8565b90505f815f0160089054906101000a900460ff161590505f825f015f9054906101000a900467ffffffffffffffff1690505f808267ffffffffffffffff161480156133635750825b90505f60018367ffffffffffffffff1614801561339657505f3073ffffffffffffffffffffffffffffffffffffffff163b145b9050811580156133a4575080155b156133db576040517ff92ee8a900000000000000000000000000000000000000000000000000000000815260040160405180910390fd5b6001855f015f6101000a81548167ffffffffffffffff021916908367ffffffffffffffff1602179055508315613428576001855f0160086101000a81548160ff0219169083151502179055505b6134318861490f565b61343961496a565b8660365f6101000a81548173ffffffffffffffffffffffffffffffffffffffff021916908373ffffffffffffffffffffffffffffffffffffffff1602179055508560375f6101000a81548173ffffffffffffffffffffffffffffffffffffffff021916908373ffffffffffffffffffffffffffffffffffffffff1602179055508315613513575f855f0160086101000a81548160ff0219169083151502179055507fc7f505b2f371ae2175ee4913f4499e1f2633a7b5936321eed1cdaeb6115181d2600160405161350a9190616b0b565b60405180910390a15b5050505050505050565b5f8054906101000a900473ffffffffffffffffffffffffffffffffffffffff1681565b6135486139b8565b808260058060ff16835f015160ff1614613597576040517f08c379a000000000000000000000000000000000000000000000000000000000815260040161358e90615f23565b60405180910390fd5b5f8054906101000a900473ffffffffffffffffffffffffffffffffffffffff1673ffffffffffffffffffffffffffffffffffffffff1663f188949c83856040518363ffffffff1660e01b81526004016135f19291906160d5565b5f6040518083038186803b158015613607575f80fd5b505afa158015613619573d5f803e3d5ffd5b505050505f60ff168160ff1614613859575f8054906101000a900473ffffffffffffffffffffffffffffffffffffffff1673ffffffffffffffffffffffffffffffffffffffff166379502c556040518163ffffffff1660e01b8152600401602060405180830381865afa158015613692573d5f803e3d5ffd5b505050506040513d601f19601f820116820180604052508101906136b69190615a0c565b73ffffffffffffffffffffffffffffffffffffffff1663adc879e96040518163ffffffff1660e01b8152600401602060405180830381865afa1580156136fe573d5f803e3d5ffd5b505050506040513d601f19601f820116820180604052508101906137229190615e0f565b60ff16836060015160ff161461376d576040517f08c379a00000000000000000000000000000000000000000000000000000000081526004016137649061617a565b60405180910390fd5b60015f845f015160ff1660ff1681526020019081526020015f205f9054906101000a900467ffffffffffffffff1667ffffffffffffffff16836040015167ffffffffffffffff16146137f4576040517f08c379a00000000000000000000000000000000000000000000000000000000081526004016137eb906161e2565b60405180910390fd5b60015f845f015160ff1660ff1681526020019081526020015f205f81819054906101000a900467ffffffffffffffff168092919061383190615e84565b91906101000a81548167ffffffffffffffff021916908367ffffffffffffffff160217905550505b5f805f613869876080015161497c565b9250925092503073ffffffffffffffffffffffffffffffffffffffff168373ffffffffffffffffffffffffffffffffffffffff16146138dd576040517f08c379a00000000000000000000000000000000000000000000000000000000081526004016138d490616b94565b60405180910390fd5b600160025f6101000a81548160ff0219169083151502179055506139018282610c2f565b7fdc69b57038334451ee12fd1742228917cea7f40dbd33cda5162e7e5754acee1c8760400151848460405161393893929190616be2565b60405180910390a150505050505061394e613c3f565b5050565b60365f9054906101000a900473ffffffffffffffffffffffffffffffffffffffff1681565b61397f611ea9565b156139b6576040517fd93c066500000000000000000000000000000000000000000000000000000000815260040160405180910390fd5b565b5f6139c16149b0565b90506002815f015403613a00576040517f3ee5aeb500000000000000000000000000000000000000000000000000000000815260040160405180910390fd5b6002815f018190555050565b613a88848573ffffffffffffffffffffffffffffffffffffffff166323b872dd868686604051602401613a4193929190616c17565b604051602081830303815290604052915060e01b6020820180517bffffffffffffffffffffffffffffffffffffffffffffffffffffffff83818316178352505050506149d7565b50505050565b5f8260ff168460ff1603613b33575f8211613ade576040517f08c379a0000000000000000000000000000000000000000000000000000000008152600401613ad590616cbc565b60405180910390fd5b67ffffffffffffffff8016821115613b2b576040517f08c379a0000000000000000000000000000000000000000000000000000000008152600401613b2290616d4a565b60405180910390fd5b819050613c38565b8260ff168460ff1611613b7b576040517f08c379a0000000000000000000000000000000000000000000000000000000008152600401613b7290616dd8565b60405180910390fd5b5f8385613b889190616df6565b600a613b949190616f59565b90508083613ba29190616fd0565b925067ffffffffffffffff8016831115613bf1576040517f08c379a0000000000000000000000000000000000000000000000000000000008152600401613be890616d4a565b60405180910390fd5b5f8311613c33576040517f08c379a0000000000000000000000000000000000000000000000000000000008152600401613c2a90616cbc565b60405180910390fd5b829150505b9392505050565b5f613c486149b0565b90506001815f018190555050565b7f000000000000000000000000000000000000000000000000000000000000000073ffffffffffffffffffffffffffffffffffffffff163073ffffffffffffffffffffffffffffffffffffffff161480613d0357507f000000000000000000000000000000000000000000000000000000000000000073ffffffffffffffffffffffffffffffffffffffff16613cea614a6c565b73ffffffffffffffffffffffffffffffffffffffff1614155b15613d3a576040517fe07c8dba00000000000000000000000000000000000000000000000000000000815260040160405180910390fd5b565b60025f9054906101000a900460ff16613d8a576040517f08c379a0000000000000000000000000000000000000000000000000000000008152600401613d8190617070565b60405180910390fd5b5f60025f6101000a81548160ff02191690831515021790555050565b8173ffffffffffffffffffffffffffffffffffffffff166352d1902d6040518163ffffffff1660e01b8152600401602060405180830381865afa925050508015613e0e57506040513d601f19601f82011682018060405250810190613e0b91906170b8565b60015b613e4f57816040517f4c9c8ce3000000000000000000000000000000000000000000000000000000008152600401613e469190615d82565b60405180910390fd5b7f360894a13ba1a3210667c828492db98dca3e2076cc3735a920a3ca505d382bbc5f1b8114613eb557806040517faa1d49a4000000000000000000000000000000000000000000000000000000008152600401613eac9190615610565b60405180910390fd5b613ebf8383614abf565b505050565b613ecc614ffb565b6030825114613f10576040517f08c379a0000000000000000000000000000000000000000000000000000000008152600401613f0790617153565b60405180910390fd5b5f825f81518110613f2457613f23617171565b5b602001015160f81c60f81b60f81c905060108160ff1614613f7a576040517f08c379a0000000000000000000000000000000000000000000000000000000008152600401613f7190617234565b60405180910390fd5b5f600190505f8260ff1667ffffffffffffffff811115613f9d57613f9c61510b565b5b6040519080825280601f01601f191660200182016040528015613fcf5781602001600182028036833780820191505090505b5090505f5b8360ff1681101561405f57858360ff1682613fef9190616867565b8151811061400057613fff617171565b5b602001015160f81c60f81b82828151811061401e5761401d617171565b5b60200101907effffffffffffffffffffffffffffffffffffffffffffffffffffffffffffff191690815f1a905350808061405790617252565b915050613fd4565b50828261406c9190617299565b91505f85838061407b906172cd565b945060ff168151811061409157614090617171565b5b602001015160f81c60f81b60f81c90505f8684806140ae906172cd565b955060ff16815181106140c4576140c3617171565b5b602001015160f81c60f81b60f81c905060148160ff161461411a576040517f08c379a00000000000000000000000000000000000000000000000000000000081526004016141119061738b565b60405180910390fd5b5f8482018801519050818561412f9190617299565b94505f88868061413e906172cd565b975060ff168151811061415457614153617171565b5b602001015160f81c60f81b60f81c90505f80600890508781018b015191506040518060e001604052808a60ff1681526020018881526020018760ff1681526020018660ff1681526020018573ffffffffffffffffffffffffffffffffffffffff1681526020018460ff1681526020018367ffffffffffffffff168152509950505050505050505050919050565b5f8360ff168360ff1603614201578167ffffffffffffffff16905061427e565b8260ff168460ff1611614249576040517f08c379a000000000000000000000000000000000000000000000000000000000815260040161424090616dd8565b60405180910390fd5b5f83856142569190616df6565b600a6142629190616f59565b9050808367ffffffffffffffff1661427a91906173a9565b9150505b9392505050565b61428d613977565b83838260375f9054906101000a900473ffffffffffffffffffffffffffffffffffffffff1673ffffffffffffffffffffffffffffffffffffffff1663f7857a198484846040518463ffffffff1660e01b81526004016142ee939291906173ea565b602060405180830381865afa158015614309573d5f803e3d5ffd5b505050506040513d601f19601f8201168201806040525081019061432d9190615a7a565b1561436d576040517f08c379a00000000000000000000000000000000000000000000000000000000081526004016143649061748f565b60405180910390fd5b5f805f9054906101000a900473ffffffffffffffffffffffffffffffffffffffff1673ffffffffffffffffffffffffffffffffffffffff166379502c556040518163ffffffff1660e01b8152600401602060405180830381865afa1580156143d7573d5f803e3d5ffd5b505050506040513d601f19601f820116820180604052508101906143fb9190615a0c565b73ffffffffffffffffffffffffffffffffffffffff1663e5324889886040518263ffffffff1660e01b81526004016144339190615a37565b602060405180830381865afa15801561444e573d5f803e3d5ffd5b505050506040513d601f19601f820116820180604052508101906144729190615c63565b90505f73ffffffffffffffffffffffffffffffffffffffff168173ffffffffffffffffffffffffffffffffffffffff16036144e2576040517f08c379a00000000000000000000000000000000000000000000000000000000081526004016144d990615c31565b60405180910390fd5b600260ff168760ff160361457e5760365f9054906101000a900473ffffffffffffffffffffffffffffffffffffffff1673ffffffffffffffffffffffffffffffffffffffff16637b1a490987876040518363ffffffff1660e01b815260040161454c9291906174cd565b5f604051808303815f87803b158015614563575f80fd5b505af1158015614575573d5f803e3d5ffd5b5050505061460a565b60365f9054906101000a900473ffffffffffffffffffffffffffffffffffffffff1673ffffffffffffffffffffffffffffffffffffffff16639db5dbe48288886040518463ffffffff1660e01b81526004016145dc93929190616c17565b5f604051808303815f87803b1580156145f3575f80fd5b505af1158015614605573d5f803e3d5ffd5b505050505b60375f9054906101000a900473ffffffffffffffffffffffffffffffffffffffff1673ffffffffffffffffffffffffffffffffffffffff16639373d3918989886040518463ffffffff1660e01b8152600401614668939291906173ea565b5f604051808303815f87803b15801561467f575f80fd5b505af1158015614691573d5f803e3d5ffd5b505050505050505050505050565b7f000000000000000000000000000000000000000000000000000000000000000073ffffffffffffffffffffffffffffffffffffffff163073ffffffffffffffffffffffffffffffffffffffff1614614724576040517fe07c8dba00000000000000000000000000000000000000000000000000000000815260040160405180910390fd5b565b5f7fcd5ed15c6e187e77e9aee88184c21f4f2182ab5827cb3b7e07fbedcd63f03300905090565b5f6001825114614792576040517f08c379a000000000000000000000000000000000000000000000000000000000815260040161478990617564565b60405180910390fd5b5f825f815181106147a6576147a5617171565b5b602001015160f81c60f81b60f81c905060018160ff1611156147fd576040517f08c379a00000000000000000000000000000000000000000000000000000000081526004016147f4906175cc565b60405180910390fd5b5f8160ff1614915050919050565b614813613977565b5f61481c614726565b90506001815f015f6101000a81548160ff0219169083151502179055507f62e78cea01bee320cd4e420270b5ea74000d11b0c9f74754ebdbfc544b05a258614862614b31565b60405161486f9190615d82565b60405180910390a150565b614882614b38565b5f61488b614726565b90505f815f015f6101000a81548160ff0219169083151502179055507f5db9ee0a495bf2e6ff9c91a7834c1ba4fdd244a5e8aa4e537bd38aeae4b073aa6148d0614b31565b6040516148dd9190615d82565b60405180910390a150565b5f7ff0c57e16840df040f15088dc2f81fe391c3923bec73e23a9662efc9c229c6a00905090565b614917614b78565b61491f614bb8565b61492881614bca565b805f806101000a81548173ffffffffffffffffffffffffffffffffffffffff021916908373ffffffffffffffffffffffffffffffffffffffff16021790555050565b614972614b78565b61497a614c14565b565b5f8060605f805f868060200190518101906149979190617682565b9250925092508282829550955095505050509193909250565b5f7f9b779b17422d0df92223018b32b4d1fa46e071723d6817e2486d003becc55f00905090565b5f614a01828473ffffffffffffffffffffffffffffffffffffffff16614c4490919063ffffffff16565b90505f815114158015614a25575080806020019051810190614a239190615a7a565b155b15614a6757826040517f5274afe7000000000000000000000000000000000000000000000000000000008152600401614a5e9190615d82565b60405180910390fd5b505050565b5f614a987f360894a13ba1a3210667c828492db98dca3e2076cc3735a920a3ca505d382bbc5f1b614c59565b5f015f9054906101000a900473ffffffffffffffffffffffffffffffffffffffff16905090565b614ac882614c62565b8173ffffffffffffffffffffffffffffffffffffffff167fbc7cd75a20ee27fd9adebab32041f755214dbc6bffa90cc0225b39da2e5c2d3b60405160405180910390a25f81511115614b2457614b1e8282614d2b565b50614b2d565b614b2c614dab565b5b5050565b5f33905090565b614b40611ea9565b614b76576040517f8dfc202b00000000000000000000000000000000000000000000000000000000815260040160405180910390fd5b565b614b80614de7565b614bb6576040517fd7e6bcf800000000000000000000000000000000000000000000000000000000815260040160405180910390fd5b565b614bc0614b78565b614bc8614e05565b565b614bd2614b78565b805f806101000a81548173ffffffffffffffffffffffffffffffffffffffff021916908373ffffffffffffffffffffffffffffffffffffffff16021790555050565b614c1c614b78565b5f614c25614726565b90505f815f015f6101000a81548160ff02191690831515021790555050565b6060614c5183835f614e24565b905092915050565b5f819050919050565b5f8173ffffffffffffffffffffffffffffffffffffffff163b03614cbd57806040517f4c9c8ce3000000000000000000000000000000000000000000000000000000008152600401614cb49190615d82565b60405180910390fd5b80614ce97f360894a13ba1a3210667c828492db98dca3e2076cc3735a920a3ca505d382bbc5f1b614c59565b5f015f6101000a81548173ffffffffffffffffffffffffffffffffffffffff021916908373ffffffffffffffffffffffffffffffffffffffff16021790555050565b60605f808473ffffffffffffffffffffffffffffffffffffffff1684604051614d54919061771e565b5f60405180830381855af49150503d805f8114614d8c576040519150601f19603f3d011682016040523d82523d5f602084013e614d91565b606091505b5091509150614da1858383614eed565b9250505092915050565b5f341115614de5576040517fb398979f00000000000000000000000000000000000000000000000000000000815260040160405180910390fd5b565b5f614df06148e8565b5f0160089054906101000a900460ff16905090565b614e0d614b78565b5f614e166149b0565b90506001815f018190555050565b606081471015614e6b57306040517fcd786059000000000000000000000000000000000000000000000000000000008152600401614e629190615d82565b60405180910390fd5b5f808573ffffffffffffffffffffffffffffffffffffffff168486604051614e93919061771e565b5f6040518083038185875af1925050503d805f8114614ecd576040519150601f19603f3d011682016040523d82523d5f602084013e614ed2565b606091505b5091509150614ee2868383614eed565b925050509392505050565b606082614f0257614efd82614f7a565b614f72565b5f8251148015614f2857505f8473ffffffffffffffffffffffffffffffffffffffff163b145b15614f6a57836040517f9996b315000000000000000000000000000000000000000000000000000000008152600401614f619190615d82565b60405180910390fd5b819050614f73565b5b9392505050565b5f81511115614f8c5780518082602001fd5b6040517f1425ea4200000000000000000000000000000000000000000000000000000000815260040160405180910390fd5b508054614fca90616460565b5f825580601f10614fdb5750614ff8565b601f0160209004905f5260205f2090810190614ff7919061505e565b5b50565b6040518060e001604052805f60ff168152602001606081526020015f60ff1681526020015f60ff1681526020015f73ffffffffffffffffffffffffffffffffffffffff1681526020015f60ff1681526020015f67ffffffffffffffff1681525090565b5b80821115615075575f815f90555060010161505f565b5090565b5f604051905090565b5f80fd5b5f80fd5b5f60ff82169050919050565b61509f8161508a565b81146150a9575f80fd5b50565b5f813590506150ba81615096565b92915050565b5f819050919050565b6150d2816150c0565b81146150dc575f80fd5b50565b5f813590506150ed816150c9565b92915050565b5f80fd5b5f80fd5b5f601f19601f8301169050919050565b7f4e487b71000000000000000000000000000000000000000000000000000000005f52604160045260245ffd5b615141826150fb565b810181811067ffffffffffffffff821117156151605761515f61510b565b5b80604052505050565b5f615172615079565b905061517e8282615138565b919050565b5f67ffffffffffffffff82111561519d5761519c61510b565b5b6151a6826150fb565b9050602081019050919050565b828183375f83830152505050565b5f6151d36151ce84615183565b615169565b9050828152602081018484840111156151ef576151ee6150f7565b5b6151fa8482856151b3565b509392505050565b5f82601f830112615216576152156150f3565b5b81356152268482602086016151c1565b91505092915050565b5f805f806080858703121561524757615246615082565b5b5f615254878288016150ac565b9450506020615265878288016150df565b935050604085013567ffffffffffffffff81111561528657615285615086565b5b61529287828801615202565b92505060606152a3878288016150ac565b91505092959194509250565b5f73ffffffffffffffffffffffffffffffffffffffff82169050919050565b5f6152d8826152af565b9050919050565b6152e8816152ce565b81146152f2575f80fd5b50565b5f81359050615303816152df565b92915050565b5f806040838503121561531f5761531e615082565b5b5f61532c858286016152f5565b925050602083013567ffffffffffffffff81111561534d5761534c615086565b5b61535985828601615202565b9150509250929050565b5f6020828403121561537857615377615082565b5b5f615385848285016150ac565b91505092915050565b5f67ffffffffffffffff82169050919050565b6153aa8161538e565b82525050565b5f6020820190506153c35f8301846153a1565b92915050565b5f67ffffffffffffffff8211156153e3576153e261510b565b5b602082029050602081019050919050565b5f80fd5b5f61540a615405846153c9565b615169565b9050808382526020820190506020840283018581111561542d5761542c6153f4565b5b835b8181101561547457803567ffffffffffffffff811115615452576154516150f3565b5b80860161545f8982615202565b8552602085019450505060208101905061542f565b5050509392505050565b5f82601f830112615492576154916150f3565b5b81356154a28482602086016153f8565b91505092915050565b5f80fd5b5f80fd5b6154bc8161538e565b81146154c6575f80fd5b50565b5f813590506154d7816154b3565b92915050565b5f60a082840312156154f2576154f16154ab565b5b6154fc60a0615169565b90505f61550b848285016150ac565b5f83015250602061551e848285016150ac565b6020830152506040615532848285016154c9565b6040830152506060615546848285016150ac565b606083015250608082013567ffffffffffffffff81111561556a576155696154af565b5b61557684828501615202565b60808301525092915050565b5f806040838503121561559857615597615082565b5b5f83013567ffffffffffffffff8111156155b5576155b4615086565b5b6155c18582860161547e565b925050602083013567ffffffffffffffff8111156155e2576155e1615086565b5b6155ee858286016154dd565b9150509250929050565b5f819050919050565b61560a816155f8565b82525050565b5f6020820190506156235f830184615601565b92915050565b5f6020828403121561563e5761563d615082565b5b5f61564b848285016154c9565b91505092915050565b5f8115159050919050565b61566881615654565b82525050565b5f6020820190506156815f83018461565f565b92915050565b5f806040838503121561569d5761569c615082565b5b5f6156aa858286016150ac565b92505060206156bb858286016154c9565b9150509250929050565b6156ce8161508a565b82525050565b6156dd816152ce565b82525050565b6156ec816150c0565b82525050565b5f81519050919050565b5f82825260208201905092915050565b5f5b8381101561572957808201518184015260208101905061570e565b5f8484015250505050565b5f61573e826156f2565b61574881856156fc565b935061575881856020860161570c565b615761816150fb565b840191505092915050565b5f60808201905061577f5f8301876156c5565b61578c60208301866156d4565b61579960408301856156e3565b81810360608301526157ab8184615734565b905095945050505050565b5f819050919050565b5f6157d96157d46157cf846152af565b6157b6565b6152af565b9050919050565b5f6157ea826157bf565b9050919050565b5f6157fb826157e0565b9050919050565b61580b816157f1565b82525050565b5f6020820190506158245f830184615802565b92915050565b5f60208201905061583d5f8301846156e3565b92915050565b5f806040838503121561585957615858615082565b5b5f83013567ffffffffffffffff81111561587657615875615086565b5b61588285828601615202565b9250506020615893858286016150ac565b9150509250929050565b5f81519050919050565b5f82825260208201905092915050565b5f6158c18261589d565b6158cb81856158a7565b93506158db81856020860161570c565b6158e4816150fb565b840191505092915050565b5f6020820190508181035f83015261590781846158b7565b905092915050565b5f805f6060848603121561592657615925615082565b5b5f615933868287016152f5565b9350506020615944868287016152f5565b9250506040615955868287016152f5565b9150509250925092565b5f615969826157e0565b9050919050565b6159798161595f565b82525050565b5f6020820190506159925f830184615970565b92915050565b5f6159a2826157e0565b9050919050565b6159b281615998565b82525050565b5f6020820190506159cb5f8301846159a9565b92915050565b5f6159db826152ce565b9050919050565b6159eb816159d1565b81146159f5575f80fd5b50565b5f81519050615a06816159e2565b92915050565b5f60208284031215615a2157615a20615082565b5b5f615a2e848285016159f8565b91505092915050565b5f602082019050615a4a5f8301846156c5565b92915050565b615a5981615654565b8114615a63575f80fd5b50565b5f81519050615a7481615a50565b92915050565b5f60208284031215615a8f57615a8e615082565b5b5f615a9c84828501615a66565b91505092915050565b7f53746172636f696e4272696467653a2054617267657420636861696e206e6f745f8201527f20737570706f7274656400000000000000000000000000000000000000000000602082015250565b5f615aff602a836158a7565b9150615b0a82615aa5565b604082019050919050565b5f6020820190508181035f830152615b2c81615af3565b9050919050565b7f53746172636f696e4272696467653a20496e76616c696420726563697069656e5f8201527f742061646472657373206c656e67746800000000000000000000000000000000602082015250565b5f615b8d6030836158a7565b9150615b9882615b33565b604082019050919050565b5f6020820190508181035f830152615bba81615b81565b9050919050565b7f53746172636f696e4272696467653a20556e737570706f7274656420746f6b655f8201527f6e00000000000000000000000000000000000000000000000000000000000000602082015250565b5f615c1b6021836158a7565b9150615c2682615bc1565b604082019050919050565b5f6020820190508181035f830152615c4881615c0f565b9050919050565b5f81519050615c5d816152df565b92915050565b5f60208284031215615c7857615c77615082565b5b5f615c8584828501615c4f565b91505092915050565b5f604082019050615ca15f8301856156d4565b615cae60208301846156d4565b9392505050565b5f81519050615cc3816150c9565b92915050565b5f60208284031215615cde57615cdd615082565b5b5f615ceb84828501615cb5565b91505092915050565b7f53746172636f696e4272696467653a20496e73756666696369656e7420616c6c5f8201527f6f77616e63650000000000000000000000000000000000000000000000000000602082015250565b5f615d4e6026836158a7565b9150615d5982615cf4565b604082019050919050565b5f6020820190508181035f830152615d7b81615d42565b9050919050565b5f602082019050615d955f8301846156d4565b92915050565b7f4e487b71000000000000000000000000000000000000000000000000000000005f52601160045260245ffd5b5f615dd2826150c0565b9150615ddd836150c0565b9250828203905081811115615df557615df4615d9b565b5b92915050565b5f81519050615e0981615096565b92915050565b5f60208284031215615e2457615e23615082565b5b5f615e3184828501615dfb565b91505092915050565b5f608082019050615e4d5f8301876156c5565b615e5a60208301866153a1565b615e6760408301856156d4565b8181036060830152615e798184615734565b905095945050505050565b5f615e8e8261538e565b915067ffffffffffffffff8203615ea857615ea7615d9b565b5b600182019050919050565b7f4d65737361676556657269666965723a206d65737361676520646f6573206e6f5f8201527f74206d6174636820747970650000000000000000000000000000000000000000602082015250565b5f615f0d602c836158a7565b9150615f1882615eb3565b604082019050919050565b5f6020820190508181035f830152615f3a81615f01565b9050919050565b5f81519050919050565b5f82825260208201905092915050565b5f819050602082019050919050565b5f82825260208201905092915050565b5f615f84826156f2565b615f8e8185615f6a565b9350615f9e81856020860161570c565b615fa7816150fb565b840191505092915050565b5f615fbd8383615f7a565b905092915050565b5f602082019050919050565b5f615fdb82615f41565b615fe58185615f4b565b935083602082028501615ff785615f5b565b805f5b8581101561603257848403895281516160138582615fb2565b945061601e83615fc5565b925060208a01995050600181019050615ffa565b50829750879550505050505092915050565b61604d8161508a565b82525050565b61605c8161538e565b82525050565b5f60a083015f8301516160775f860182616044565b50602083015161608a6020860182616044565b50604083015161609d6040860182616053565b5060608301516160b06060860182616044565b50608083015184820360808601526160c88282615f7a565b9150508091505092915050565b5f6040820190508181035f8301526160ed8185615fd1565b905081810360208301526161018184616062565b90509392505050565b7f4d65737361676556657269666965723a20496e76616c696420636861696e20495f8201527f4400000000000000000000000000000000000000000000000000000000000000602082015250565b5f6161646021836158a7565b915061616f8261610a565b604082019050919050565b5f6020820190508181035f83015261619181616158565b9050919050565b7f4d65737361676556657269666965723a20496e76616c6964206e6f6e636500005f82015250565b5f6161cc601e836158a7565b91506161d782616198565b602082019050919050565b5f6020820190508181035f8301526161f9816161c0565b9050919050565b7f53746172636f696e4272696467653a204d65737361676520616c7265616479205f8201527f70726f6365737365640000000000000000000000000000000000000000000000602082015250565b5f61625a6029836158a7565b915061626582616200565b604082019050919050565b5f6020820190508181035f8301526162878161624e565b9050919050565b7f53746172636f696e4272696467653a205472616e7366657220616c72656164795f8201527f20617070726f7665640000000000000000000000000000000000000000000000602082015250565b5f6162e86029836158a7565b91506162f38261628e565b604082019050919050565b5f6020820190508181035f830152616315816162dc565b9050919050565b7f53746172636f696e4272696467653a20496e76616c69642074617267657420635f8201527f6861696e00000000000000000000000000000000000000000000000000000000602082015250565b5f6163766024836158a7565b91506163818261631c565b604082019050919050565b5f6020820190508181035f8301526163a38161636a565b9050919050565b5f815190506163b8816154b3565b92915050565b5f602082840312156163d3576163d2615082565b5b5f6163e0848285016163aa565b91505092915050565b5f6080820190506163fc5f8301876156c5565b61640960208301866156e3565b818103604083015261641b8185615734565b905061642a60608301846156d4565b95945050505050565b7f4e487b71000000000000000000000000000000000000000000000000000000005f52602260045260245ffd5b5f600282049050600182168061647757607f821691505b60208210810361648a57616489616433565b5b50919050565b5f819050815f5260205f209050919050565b5f6020601f8301049050919050565b5f82821b905092915050565b5f600883026164ec7fffffffffffffffffffffffffffffffffffffffffffffffffffffffffffffffff826164b1565b6164f686836164b1565b95508019841693508086168417925050509392505050565b5f61652861652361651e846150c0565b6157b6565b6150c0565b9050919050565b5f819050919050565b6165418361650e565b61655561654d8261652f565b8484546164bd565b825550505050565b5f90565b61656961655d565b616574818484616538565b505050565b5b818110156165975761658c5f82616561565b60018101905061657a565b5050565b601f8211156165dc576165ad81616490565b6165b6846164a2565b810160208510156165c5578190505b6165d96165d1856164a2565b830182616579565b50505b505050565b5f82821c905092915050565b5f6165fc5f19846008026165e1565b1980831691505092915050565b5f61661483836165ed565b9150826002028217905092915050565b61662d826156f2565b67ffffffffffffffff8111156166465761664561510b565b5b6166508254616460565b61665b82828561659b565b5f60209050601f83116001811461668c575f841561667a578287015190505b6166848582616609565b8655506166eb565b601f19841661669a86616490565b5f5b828110156166c15784890151825560018201915060208501945060208101905061669c565b868310156166de57848901516166da601f8916826165ed565b8355505b6001600288020188555050505b505050505050565b5f60a0820190506167065f8301886156c5565b61671360208301876156e3565b81810360408301526167258186615734565b905061673460608301856156d4565b61674160808301846156e3565b9695505050505050565b7f53746172636f696e4272696467653a205472616e7366657220616c72656164795f8201527f20636c61696d6564000000000000000000000000000000000000000000000000602082015250565b5f6167a56028836158a7565b91506167b08261674b565b604082019050919050565b5f6020820190508181035f8301526167d281616799565b9050919050565b7f53746172636f696e4272696467653a205472616e73666572206e6f74206170705f8201527f726f766564000000000000000000000000000000000000000000000000000000602082015250565b5f6168336025836158a7565b915061683e826167d9565b604082019050919050565b5f6020820190508181035f83015261686081616827565b9050919050565b5f616871826150c0565b915061687c836150c0565b925082820190508082111561689457616893615d9b565b5b92915050565b7f53746172636f696e4272696467653a20436c61696d2064656c6179206e6f74205f8201527f7061737365640000000000000000000000000000000000000000000000000000602082015250565b5f6168f46026836158a7565b91506168ff8261689a565b604082019050919050565b5f6020820190508181035f830152616921816168e8565b9050919050565b5f81905092915050565b50565b5f6169405f83616928565b915061694b82616932565b5f82019050919050565b5f61695f82616935565b9150819050919050565b7f53746172636f696e4272696467653a204661696c656420746f207472616e73665f8201527f65722045544820746f207661756c740000000000000000000000000000000000602082015250565b5f6169c3602f836158a7565b91506169ce82616969565b604082019050919050565b5f6020820190508181035f8301526169f0816169b7565b9050919050565b5f604082019050616a0a5f8301856153a1565b616a17602083018461565f565b9392505050565b7f53746172636f696e4272696467653a2055736520617070726f76655472616e735f8201527f666572576974685369676e617475726573207768656e2064656c61792069732060208201527f7365740000000000000000000000000000000000000000000000000000000000604082015250565b5f616a9e6043836158a7565b9150616aa982616a1e565b606082019050919050565b5f6020820190508181035f830152616acb81616a92565b9050919050565b5f819050919050565b5f616af5616af0616aeb84616ad2565b6157b6565b61538e565b9050919050565b616b0581616adb565b82525050565b5f602082019050616b1e5f830184616afc565b92915050565b7f436f6d6d69747465655570677261646561626c653a20496e76616c69642070725f8201527f6f78792061646472657373000000000000000000000000000000000000000000602082015250565b5f616b7e602b836158a7565b9150616b8982616b24565b604082019050919050565b5f6020820190508181035f830152616bab81616b72565b9050919050565b5f616bcc616bc7616bc28461538e565b6157b6565b6150c0565b9050919050565b616bdc81616bb2565b82525050565b5f606082019050616bf55f830186616bd3565b616c0260208301856156d4565b616c0f60408301846156d4565b949350505050565b5f606082019050616c2a5f8301866156d4565b616c3760208301856156d4565b616c4460408301846156e3565b949350505050565b7f4272696467655574696c733a20496e73756666696369656e7420616d6f756e745f8201527f2070726f76696465640000000000000000000000000000000000000000000000602082015250565b5f616ca66029836158a7565b9150616cb182616c4c565b604082019050919050565b5f6020820190508181035f830152616cd381616c9a565b9050919050565b7f4272696467655574696c733a20416d6f756e7420746f6f206c6172676520666f5f8201527f722075696e743634000000000000000000000000000000000000000000000000602082015250565b5f616d346028836158a7565b9150616d3f82616cda565b604082019050919050565b5f6020820190508181035f830152616d6181616d28565b9050919050565b7f4272696467655574696c733a20496e76616c69642053746172636f696e2064655f8201527f63696d616c000000000000000000000000000000000000000000000000000000602082015250565b5f616dc26025836158a7565b9150616dcd82616d68565b604082019050919050565b5f6020820190508181035f830152616def81616db6565b9050919050565b5f616e008261508a565b9150616e0b8361508a565b9250828203905060ff811115616e2457616e23615d9b565b5b92915050565b5f8160011c9050919050565b5f808291508390505b6001851115616e7f57808604811115616e5b57616e5a615d9b565b5b6001851615616e6a5780820291505b8081029050616e7885616e2a565b9450616e3f565b94509492505050565b5f82616e975760019050616f52565b81616ea4575f9050616f52565b8160018114616eba5760028114616ec457616ef3565b6001915050616f52565b60ff841115616ed657616ed5615d9b565b5b8360020a915084821115616eed57616eec615d9b565b5b50616f52565b5060208310610133831016604e8410600b8410161715616f285782820a905083811115616f2357616f22615d9b565b5b616f52565b616f358484846001616e36565b92509050818404811115616f4c57616f4b615d9b565b5b81810290505b9392505050565b5f616f63826150c0565b9150616f6e8361508a565b9250616f9b7fffffffffffffffffffffffffffffffffffffffffffffffffffffffffffffffff8484616e88565b905092915050565b7f4e487b71000000000000000000000000000000000000000000000000000000005f52601260045260245ffd5b5f616fda826150c0565b9150616fe5836150c0565b925082616ff557616ff4616fa3565b5b828204905092915050565b7f436f6d6d69747465655570677261646561626c653a20556e617574686f72697a5f8201527f6564207570677261646500000000000000000000000000000000000000000000602082015250565b5f61705a602a836158a7565b915061706582617000565b604082019050919050565b5f6020820190508181035f8301526170878161704e565b9050919050565b617097816155f8565b81146170a1575f80fd5b50565b5f815190506170b28161708e565b92915050565b5f602082840312156170cd576170cc615082565b5b5f6170da848285016170a4565b91505092915050565b7f4272696467655574696c733a20546f6b656e5472616e736665725061796c6f615f8201527f64206d7573742062652034382062797465730000000000000000000000000000602082015250565b5f61713d6032836158a7565b9150617148826170e3565b604082019050919050565b5f6020820190508181035f83015261716a81617131565b9050919050565b7f4e487b71000000000000000000000000000000000000000000000000000000005f52603260045260245ffd5b7f4272696467655574696c733a20496e76616c69642073656e64657220616464725f8201527f657373206c656e6774682c2053746172636f696e2061646472657373206d757360208201527f7420626520313620627974657300000000000000000000000000000000000000604082015250565b5f61721e604d836158a7565b91506172298261719e565b606082019050919050565b5f6020820190508181035f83015261724b81617212565b9050919050565b5f61725c826150c0565b91507fffffffffffffffffffffffffffffffffffffffffffffffffffffffffffffffff820361728e5761728d615d9b565b5b600182019050919050565b5f6172a38261508a565b91506172ae8361508a565b9250828201905060ff8111156172c7576172c6615d9b565b5b92915050565b5f6172d78261508a565b915060ff82036172ea576172e9615d9b565b5b600182019050919050565b7f4272696467655574696c733a20496e76616c69642074617267657420616464725f8201527f657373206c656e6774682c2045564d2061646472657373206d7573742062652060208201527f3230206279746573000000000000000000000000000000000000000000000000604082015250565b5f6173756048836158a7565b9150617380826172f5565b606082019050919050565b5f6020820190508181035f8301526173a281617369565b9050919050565b5f6173b3826150c0565b91506173be836150c0565b92508282026173cc816150c0565b915082820484148315176173e3576173e2615d9b565b5b5092915050565b5f6060820190506173fd5f8301866156c5565b61740a60208301856156c5565b61741760408301846156e3565b949350505050565b7f53746172636f696e4272696467653a20416d6f756e74206578636565647320625f8201527f7269646765206c696d6974000000000000000000000000000000000000000000602082015250565b5f617479602b836158a7565b91506174848261741f565b604082019050919050565b5f6020820190508181035f8301526174a68161746d565b9050919050565b5f6174b7826152af565b9050919050565b6174c7816174ad565b82525050565b5f6040820190506174e05f8301856174be565b6174ed60208301846156e3565b9392505050565b7f4272696467655574696c733a20496e76616c6964207061796c6f6164206c656e5f8201527f6774680000000000000000000000000000000000000000000000000000000000602082015250565b5f61754e6023836158a7565b9150617559826174f4565b604082019050919050565b5f6020820190508181035f83015261757b81617542565b9050919050565b7f4272696467655574696c733a20496e76616c6964206f7020636f6465000000005f82015250565b5f6175b6601c836158a7565b91506175c182617582565b602082019050919050565b5f6020820190508181035f8301526175e3816175aa565b9050919050565b6175f3816174ad565b81146175fd575f80fd5b50565b5f8151905061760e816175ea565b92915050565b5f61762661762184615183565b615169565b905082815260208101848484011115617642576176416150f7565b5b61764d84828561570c565b509392505050565b5f82601f830112617669576176686150f3565b5b8151617679848260208601617614565b91505092915050565b5f805f6060848603121561769957617698615082565b5b5f6176a686828701617600565b93505060206176b786828701617600565b925050604084015167ffffffffffffffff8111156176d8576176d7615086565b5b6176e486828701617655565b9150509250925092565b5f6176f8826156f2565b6177028185616928565b935061771281856020860161570c565b80840191505092915050565b5f61772982846176ee565b91508190509291505056fea26469706673582212206dca2c7b178a907cd8127abde0fec361ba22ee5d5033e4534674cd8ccdb6f76564736f6c63430008140033",
    "linkReferences": {}
  },
  "methodIdentifiers": {
    "UPGRADE_INTERFACE_VERSION()": "ad3cb1cc",
    "approveTransferWithSignatures(bytes[],(uint8,uint8,uint64,uint8,bytes))": "526e5902",
    "approvedTransfers(uint8,uint64)": "719f94c4",
    "bridgeERC20(uint8,uint256,bytes,uint8)": "212afaff",
    "bridgeETH(bytes,uint8)": "9449ebd2",
    "claimApprovedTransfer(uint8,uint64)": "5626d213",
    "committee()": "d864e740",
    "executeEmergencyOpWithSignatures(bytes[],(uint8,uint8,uint64,uint8,bytes))": "a6f740f6",
    "initialize(address,address,address)": "c0c53b8b",
    "isTransferProcessed(uint64)": "5458ea9e",
    "limiter()": "74b87f67",
    "nonces(uint8)": "5035bda2",
    "paused()": "5c975abb",
    "proxiableUUID()": "52d1902d",
    "transferApprovals(uint8,uint64)": "7a2db6cb",
    "transferBridgedTokensWithSignatures(bytes[],(uint8,uint8,uint64,uint8,bytes))": "beb0d55c",
    "upgradeToAndCall(address,bytes)": "4f1ef286",
    "upgradeWithSignatures(bytes[],(uint8,uint8,uint64,uint8,bytes))": "fa72a6d0",
    "vault()": "fbfa77cf"
  },
  "storageLayout": {
    "storage": [
      {
        "astId": 3829,
        "contract": "contracts/StarcoinBridge.sol:StarcoinBridge",
        "label": "committee",
        "offset": 0,
        "slot": "0",
        "type": "t_contract(IBridgeCommittee)2433"
      },
      {
        "astId": 3833,
        "contract": "contracts/StarcoinBridge.sol:StarcoinBridge",
        "label": "nonces",
        "offset": 0,
        "slot": "1",
        "type": "t_mapping(t_uint8,t_uint64)"
      },
      {
        "astId": 3702,
        "contract": "contracts/StarcoinBridge.sol:StarcoinBridge",
        "label": "_upgradeAuthorized",
        "offset": 0,
        "slot": "2",
        "type": "t_bool"
      },
      {
        "astId": 3706,
        "contract": "contracts/StarcoinBridge.sol:StarcoinBridge",
        "label": "__gap",
        "offset": 0,
        "slot": "3",
        "type": "t_array(t_uint256)50_storage"
      },
      {
        "astId": 1496,
        "contract": "contracts/StarcoinBridge.sol:StarcoinBridge",
        "label": "isTransferProcessed",
        "offset": 0,
        "slot": "53",
        "type": "t_mapping(t_uint64,t_bool)"
      },
      {
        "astId": 1499,
        "contract": "contracts/StarcoinBridge.sol:StarcoinBridge",
        "label": "vault",
        "offset": 0,
        "slot": "54",
        "type": "t_contract(IBridgeVault)2612"
      },
      {
        "astId": 1502,
        "contract": "contracts/StarcoinBridge.sol:StarcoinBridge",
        "label": "limiter",
        "offset": 0,
        "slot": "55",
        "type": "t_contract(IBridgeLimiter)2590"
      },
      {
        "astId": 1512,
        "contract": "contracts/StarcoinBridge.sol:StarcoinBridge",
        "label": "transferApprovals",
        "offset": 0,
        "slot": "56",
        "type": "t_mapping(t_uint8,t_mapping(t_uint64,t_uint256))"
      },
      {
        "astId": 1529,
        "contract": "contracts/StarcoinBridge.sol:StarcoinBridge",
        "label": "approvedTransfers",
        "offset": 0,
        "slot": "57",
        "type": "t_mapping(t_uint8,t_mapping(t_uint64,t_struct(ApprovedTransfer)1522_storage))"
      }
    ],
    "types": {
      "t_address": {
        "encoding": "inplace",
        "label": "address",
        "numberOfBytes": "20"
      },
      "t_array(t_uint256)50_storage": {
        "encoding": "inplace",
        "label": "uint256[50]",
        "numberOfBytes": "1600",
        "base": "t_uint256"
      },
      "t_bool": {
        "encoding": "inplace",
        "label": "bool",
        "numberOfBytes": "1"
      },
      "t_bytes_storage": {
        "encoding": "bytes",
        "label": "bytes",
        "numberOfBytes": "32"
      },
      "t_contract(IBridgeCommittee)2433": {
        "encoding": "inplace",
        "label": "contract IBridgeCommittee",
        "numberOfBytes": "20"
      },
      "t_contract(IBridgeLimiter)2590": {
        "encoding": "inplace",
        "label": "contract IBridgeLimiter",
        "numberOfBytes": "20"
      },
      "t_contract(IBridgeVault)2612": {
        "encoding": "inplace",
        "label": "contract IBridgeVault",
        "numberOfBytes": "20"
      },
      "t_mapping(t_uint64,t_bool)": {
        "encoding": "mapping",
        "key": "t_uint64",
        "label": "mapping(uint64 => bool)",
        "numberOfBytes": "32",
        "value": "t_bool"
      },
      "t_mapping(t_uint64,t_struct(ApprovedTransfer)1522_storage)": {
        "encoding": "mapping",
        "key": "t_uint64",
        "label": "mapping(uint64 => struct StarcoinBridge.ApprovedTransfer)",
        "numberOfBytes": "32",
        "value": "t_struct(ApprovedTransfer)1522_storage"
      },
      "t_mapping(t_uint64,t_uint256)": {
        "encoding": "mapping",
        "key": "t_uint64",
        "label": "mapping(uint64 => uint256)",
        "numberOfBytes": "32",
        "value": "t_uint256"
      },
      "t_mapping(t_uint8,t_mapping(t_uint64,t_struct(ApprovedTransfer)1522_storage))": {
        "encoding": "mapping",
        "key": "t_uint8",
        "label": "mapping(uint8 => mapping(uint64 => struct StarcoinBridge.ApprovedTransfer))",
        "numberOfBytes": "32",
        "value": "t_mapping(t_uint64,t_struct(ApprovedTransfer)1522_storage)"
      },
      "t_mapping(t_uint8,t_mapping(t_uint64,t_uint256))": {
        "encoding": "mapping",
        "key": "t_uint8",
        "label": "mapping(uint8 => mapping(uint64 => uint256))",
        "numberOfBytes": "32",
        "value": "t_mapping(t_uint64,t_uint256)"
      },
      "t_mapping(t_uint8,t_uint64)": {
        "encoding": "mapping",
        "key": "t_uint8",
        "label": "mapping(uint8 => uint64)",
        "numberOfBytes": "32",
        "value": "t_uint64"
      },
      "t_struct(ApprovedTransfer)1522_storage": {
        "encoding": "inplace",
        "label": "struct StarcoinBridge.ApprovedTransfer",
        "numberOfBytes": "96",
        "members": [
          {
            "astId": 1515,
            "contract": "contracts/StarcoinBridge.sol:StarcoinBridge",
            "label": "tokenID",
            "offset": 0,
            "slot": "0",
            "type": "t_uint8"
          },
          {
            "astId": 1517,
            "contract": "contracts/StarcoinBridge.sol:StarcoinBridge",
            "label": "recipientAddress",
            "offset": 1,
            "slot": "0",
            "type": "t_address"
          },
          {
            "astId": 1519,
            "contract": "contracts/StarcoinBridge.sol:StarcoinBridge",
            "label": "erc20Amount",
            "offset": 0,
            "slot": "1",
            "type": "t_uint256"
          },
          {
            "astId": 1521,
            "contract": "contracts/StarcoinBridge.sol:StarcoinBridge",
            "label": "senderAddress",
            "offset": 0,
            "slot": "2",
            "type": "t_bytes_storage"
          }
        ]
      },
      "t_uint256": {
        "encoding": "inplace",
        "label": "uint256",
        "numberOfBytes": "32"
      },
      "t_uint64": {
        "encoding": "inplace",
        "label": "uint64",
        "numberOfBytes": "8"
      },
      "t_uint8": {
        "encoding": "inplace",
        "label": "uint8",
        "numberOfBytes": "1"
      }
    }
  },
  "id": 4
}